S01700004763634170706C69636174696F6E312E737265635B
S11300000C942A000C9447000C9447000C9447006D
S11300100C9447000C9447000C9447000C94470040
S11300200C9447000C9447000C9447000C94470030
S11300300C9447000C9447000C9447000C94470020
S11300400C9447000C9447000C9447000C94470010
S11300500C94470011241FBECFE5D8E0DEBFCDBF0E
S113006011E0A0E6B0E0EAE7F4E102C005900D92E9
S1130070A23DB107D9F721E0A2EDB1E001C01D9284
S1130080A33FB207E1F70E94F0090C943B0A0C94D9
S1130090000087EF82BB81E28A95F1F7000080B30C
S11300A0873B21F483E2809360000895873E19F42E
S11300B08AE28093600008958BBB84E088BB89EF5B
S11300C090E00197F1F700C0000018BA83EC99E0C2
S11300D00197F1F700C00000089588E30E945C00D6
S11300E089EF90E00197F1F700C0000081E00E94E1
S11300F05C0089EF90E00197F1F700C000008EE00A
S11301000E945C0089EF90E00197F1F700C00000C5
S113011080E80E945C0089EF90E00197F1F700C04D
S1130120000008958BBB85E088BB83EC99E00197C0
S1130130F1F700C0000081E088BB83EC99E00197EF
S1130140F1F700C000000895CF93DF93EC0188819C
S1130150882331F021960E94920089918111FBCF6E
S1130160DF91CF910895AF92BF92CF92DF92EF9239
S1130170FF920F931F93CF93DF930F2EF1E6AF2ED1
S1130180F0E0BF2EF02D0F2EF6EDCF2EF1E0DF2E96
S1130190F02DE12CF12CF50181915F010E945C00AE
S11301A0F2E0EF16F10428F483E291E00E94A40047
S11301B020C087E291E00E94A4001BC0F801819155
S11301C08F010E94920080E20E9492002196C33027
S11301D0D105A1F784E690E00E94A400FFEFEF1A96
S11301E0FF0A83E0C80ED11CE3E0EE16F10499F691
S11301F004C08601C0E0D0E0E1CFDF91CF911F9130
S11302000F91FF90EF90DF90CF90BF90AF90089543
S11302108EEF82BB81E28A95F1F7000080B38E3BBA
S113022099F58091E5019091E6010297F1F488E552
S11302308093D80185E090E09093E6018093E501F6
S113024081E090E09093D5018093D40184ED0E94E5
S11302505C0086E690E00E94A40084ED0E945C00AD
S11302608AE790E00E94A400089584ED0E945C0057
S113027086E690E00E94A40084ED0E945C008EE873
S113028090E00E94A40008958E3D99F58091E301C9
S11302909091E4010297F1F488E58093D70185E019
S11302A090E09093E4018093E30181E090E09093E7
S11302B0D5018093D40184ED0E945C0086E690E031
S11302C00E94A40084ED0E945C008AE790E00E94F2
S11302D0A400089584ED0E945C0086E690E00E94EC
S11302E0A40084ED0E945C008EE890E00E94A400CB
S11302F008958E3E91F58091E1019091E20102977B
S1130300F1F488E58093D60185E090E09093E201D2
S11303108093E10181E090E09093D5018093D40132
S113032084ED0E945C0086E690E00E94A40084EDC7
S11303300E945C008AE790E00E94A400089584ED86
S11303400E945C0086E690E00E94A40084ED0E9476
S11303505C008EE890E00E94A40008958DEF82BBBB
S113036081E28A95F1F7000080B38D3B99F5809185
S1130370EB019091EC010297F1F488E58093DB01A5
S113038085E090E09093EC018093EB0181E090E0B4
S11303909093D5018093D40184ED0E945C0086E69D
S11303A090E00E94A40084ED0E945C008AE790E043
S11303B00E94A400089584ED0E945C0086E690E00B
S11303C00E94A40084ED0E945C008EE890E00E94EC
S11303D0A40008958D3DB1F58091E9019091EA0161
S11303E0029709F588E58093DA0185E090E090931F
S11303F0EA018093E90184ED0E945C0081E090E0D1
S11304009093D5018093D40186E690E00E94A400E5
S113041084ED0E945C008AE790E00E94A40084EDD1
S11304200E945C00089584ED0E945C0086E690E0E2
S11304300E94A40084ED0E945C008EE890E00E947B
S1130440A40008958D3E91F58091E7019091E80113
S11304500297F1F488E58093D90185E090E09093C8
S1130460E8018093E70184ED0E945C0081E090E064
S11304709093D5018093D40186E690E00E94A40075
S113048084ED0E945C008AE790E00E94A400089535
S113049084ED0E945C0086E690E00E94A40084ED56
S11304A00E945C008EE890E00E94A40008958BEF07
S11304B082BB81E28A95F1F7000080B38B3B99F50A
S11304C08091F1019091F2010297F1F488E5809313
S11304D0DE0185E090E09093F2018093F10184EDD8
S11304E00E945C0081E090E09093D5018093D40158
S11304F086E690E00E94A40084ED0E945C008AE7F6
S113050090E00E94A400089584ED0E945C0086E6B9
S113051090E00E94A40084ED0E945C008EE890E0CC
S11305200E94A40008958B3D99F58091EF0190916C
S1130530F0010297F1F488E58093DD0185E090E015
S11305409093F0018093EF0184ED0E945C0081E0C0
S113055090E09093D5018093D40186E690E00E94C8
S1130560A40084ED0E945C008AE790E00E94A4004D
S1130570089584ED0E945C0086E690E00E94A40049
S113058084ED0E945C008EE890E00E94A40008952F
S11305908B3E91F58091ED019091EE010297F1F47B
S11305A088E58093DC0185E090E09093EE018093F0
S11305B0ED0184ED0E945C0081E090E09093D50110
S11305C08093D40186E690E00E94A40084ED0E940A
S11305D05C008AE790E00E94A400089584ED0E94E4
S11305E05C0086E690E00E94A40084ED0E945C001A
S11305F08EE890E00E94A4000895CF930E946D00BD
S113060080E80E945C008CE990E00E94A40080ECE9
S11306100E945C008EEA90E00E94A400C0EF10C02B
S1130620C2BB80B321E22A95F1F70000803F41F07C
S11306300E9408010E94AE010E9457020E944900D4
S113064080916000803361F38A3259F480EC0E9417
S11306505C0088E291E00E94A4008FEF0E94920067
S11306600EC080EC0E945C0080EC90E00E94A4002C
S11306708FEF0E9492008BEC90E00E94A4008FE721
S11306809AE126E0815090402040E1F700C000004C
S113069080E3809360000E946D008091D20190916C
S11306A0D30101969093D3018093D201E1EEF1E05E
S11306B082E090E091838083938382839583848313
S11306C0978386839187808793878287958784879A
S11306D097878687918B808B46ED51E06FED71E0B3
S11306E02FEF09C02193E817F907E1F74D5F5F4F3A
S11306F04617570721F0CA010796FA01F3CF84E998
S11307000E945C0087E191E00E94A4000E94B30073
S11307108091D20180FD11C08091E9019091EA019C
S1130720029759F480E38093DA0183E090E0909398
S1130730EA018093E9010E94B30082E090E0909383
S1130740E2018093E101CF9108950E94B3002FE369
S11307508DE093E0215080409040E1F700C000001C
S113076084ED0E945C0086E690E00E94A40084ED83
S11307700E945C0080ED90E00E94A40080E80E944A
S11307805C0084EE90E00E94A40080EC0E945C0077
S11307908CEF90E00E94A40084E90E945C0084ED48
S11307A090E00E94A4002FE382E49FE02150804067
S11307B09040E1F700C0000080E80E945C0081E105
S11307C091E00E94A40080EC0E945C0081E191E031
S11307D00E94A4000E94FD0208952F923F924F921E
S11307E05F926F927F928F929F92AF92BF92CF92BD
S11307F0DF92EF92FF920F931F93CF93DF9300D07A
S113080000D0CDB7DEB7E1EEF1E020813181628125
S1130810738144815581269FC001279F900D369F87
S1130820900D1124849F3001859F700C949F700C4F
S113083011247C826B82808591858230910551F4EC
S113084080E38093DA0183E090E09093EA0180935F
S1130850E901AFC50B811C810D37110509F4A7C04F
S1130860A1EEB1E01696ED91FC9117971A960D91B1
S11308701C911B97E89FD001E99FB00DF89FB00D24
S11308801124A09F5001A19FB00CB09FB00C112463
S1130890ADE7AA16B10409F48AC00F2EF1EEEF2ECB
S11308A0F1E0FF2EF02DD7011C960D90BC91A02DE8
S11308B0BA83A983D7011E968D909C901F9750965A
S11308C0ED90FC90519769807A80689C6001699CE6
S11308D0D00C789CD00C1124CE9C3001CF9C700C91
S11308E0DE9C700C1124ADE76A16710409F45FC034
S11308F02E9F60012F9FD00C3E9FD00C1124E981C4
S1130900FA81CE9E2001CF9E500CDE9E500C112405
S1130910FDE74F16510409F44AC0689FF001699F2E
S1130920F00D789FF00D1124E89D6001E99DD00C35
S1130930F89DD00C11246DE7C616D104C1F1409F77
S1130940B001419F700D509F700D11246E9D4001A8
S11309506F9D900C7E9D900C1124ADE78A16910436
S113096031F1289FB001299F700D389F700D11241B
S11309706E9D10016F9D300C7E9D300C1124BDE7DF
S11309802B163104A1F0489F9001499F300D589FC8
S1130990300D1124E981FA812E9F80012F9F100DC3
S11309A03E9F100D11240D37110509F048C00E9417
S11309B0B300FFE30DE013E0F15000401040E1F715
S11309C000C0000084ED0E945C0086E690E00E9476
S11309D0A40084ED0E945C008AE291E00E94A400DD
S11309E080E80E945C008EE391E00E94A40080EC09
S11309F00E945C008CEF90E00E94A40084E90E94B5
S1130A005C0084ED90E00E94A4002FE362E48FE098
S1130A10215060408040E1F700C0000080E80E945F
S1130A205C0081E191E00E94A40080EC0E945C00E3
S1130A3081E191E00E94A4000E94FD02BAC484ED09
S1130A400E945C0086E690E00E94A40084ED0E946F
S1130A505C0086E591E00E94A4009FE3ADE0B3E072
S1130A609150A040B040E1F700C00000EB81FC8150
S1130A70729711F1F2E1AF16B104A1F122E162160D
S1130A80710409F447C062E14616510409F45AC0DE
S1130A9082E1C816D10409F46BC092E1891691046D
S1130AA009F47EC0A2E12A16310409F491C002318E
S1130AB0110509F034C1BCC0E1EEF1E0A6EDB1E0EE
S1130AC027EE31E063E070E040E38081918102979A
S1130AD019F4718360834C93329611962E173F0755
S1130AE0A1F7D5C0E1EEF1E0A6EDB1E027EE31E0EB
S1130AF063E070E040E386819781029729F477836D
S1130B00668313964C931397329611962E173F07CC
S1130B1091F7BDC0E1EEF1E0A6EDB1E027EE31E0E2
S1130B2063E070E040E384859585029729F4758736
S1130B30648716964C93169732961196E217F3072C
S1130B4091F7A5C0E1EEF1E0A6EDB1E023EF31E0CD
S1130B5063E070E040E380819181029719F471832E
S1130B6060834C9336961396E217F307A1F78FC070
S1130B70E1EEF1E0A6EDB1E023EF31E063E070E0F7
S1130B8040E382819381029729F4738362831196EF
S1130B904C93119736961396E217F30791F777C0A3
S1130BA0E1EEF1E0A6EDB1E023EF31E063E070E0C7
S1130BB040E384819581029729F4758364831296B6
S1130BC04C93129736961396E217F30791F75FC08A
S1130BD08091E1019091E201029751F483E090E069
S1130BE09093E2018093E10180E38093D6014FC0AA
S1130BF08091E9019091EA01029751F483E090E039
S1130C009093EA018093E90180E38093DA013FC085
S1130C108091F1019091F2010297C9F583E090E08F
S1130C209093F2018093F10180E38093DE012FC061
S1130C308091E5019091E601029751F483E090E000
S1130C409093E6018093E50180E38093D8011FC06F
S1130C508091E9019091EA01029751F483E090E0D8
S1130C609093EA018093E90180E38093DA010FC055
S1130C708091ED019091EE01029749F483E090E0B8
S1130C809093EE018093ED0180E38093DC010E9458
S1130C90B300BFE3EDE0F3E0B150E040F040E1F732
S1130CA000C0000084ED0E945C0086E690E00E9493
S1130CB0A40084ED0E945C008AE691E00E94A400F6
S1130CC080E80E945C0082E891E00E94A40080EC2D
S1130CD00E945C008CEF90E00E94A40084E90E94D2
S1130CE05C0084ED90E00E94A4000FE312E42FE086
S1130CF0015010402040E1F700C0000080E80E944D
S1130D005C0081E191E00E94A40080EC0E945C0000
S1130D1081E191E00E94A4000E94FD021EC38B8128
S1130D209C81C29711F192E3A916B104A1F1A2E347
S1130D306A16710409F447C0B2E34B16510409F46E
S1130D405AC0E2E3CE16D10409F46CC0F2E38F1664
S1130D50910409F480C022E32216310409F494C0FA
S1130D600233110509F000C1BFC0E1EEF1E0A6EDC8
S1130D70B1E027EE31E063E070E040E380819181EF
S1130D80029719F4718360834C9332961196E2179B
S1130D90F307A1F7D8C0E1EEF1E0A6EDB1E027EE4C
S1130DA031E063E070E040E386819781029729F4A3
S1130DB07783668313964C93139732961196E217B2
S1130DC0F30791F7C0C0E1EEF1E0A6EDB1E027EE44
S1130DD031E063E070E040E384859585029729F46F
S1130DE07587648716964C93169732961196E21778
S1130DF0F30791F7A8C0E1EEF1E0A6EDB1E043EF0F
S1130E0051E023E030E080E360817181623071055C
S1130E1019F4318320838C9336961396E417F507DF
S1130E2099F791C0E1EEF1E0A6EDB1E043EF51E0B6
S1130E3023E030E080E3628173816230710529F43C
S1130E403383228311968C93119736961396E41765
S1130E50F50789F778C0E1EEF1E0A6EDB1E043EFE4
S1130E6051E023E030E080E36481758162307105F4
S1130E7029F43583248312968C931297369613960D
S1130E80E417F50789F75FC08091E1019091E201D1
S1130E90029751F483E090E09093E2018093E101A2
S1130EA080E38093D6014FC08091E9019091EA01DB
S1130EB0029751F483E090E09093EA018093E90172
S1130EC080E38093DA013FC08091F1019091F201B7
S1130ED00297C9F583E090E09093F2018093F101C9
S1130EE080E38093DE012FC08091E5019091E601BB
S1130EF0029751F483E090E09093E6018093E5013A
S1130F0080E38093D8011FC08091E9019091EA01A8
S1130F10029751F483E090E09093EA018093E90111
S1130F2080E38093DA010FC08091ED019091EE018E
S1130F30029749F483E090E09093EE018093ED01F1
S1130F4080E38093DC010E94B30084ED0E945C0086
S1130F5086E690E00E94A40084ED0E945C008AE989
S1130F6091E00E94A400F9C180916000833201F5F0
S1130F708B819C810C97A9F19CE0A916B10489F19D
S1130F80ACE06A16710469F1BCE04B16510449F1F6
S1130F90ECE0CE16D10429F1FCE08F16910409F19E
S1130FA02CE02216310409F10C30110509F451C06A
S1130FB041EE51E066ED71E00F2EF3EFCF2EF1E03C
S1130FC0DF2EF02D20E030E00F2EF3E0EF2EF12C99
S1130FD0F02D0F2EF0E39F2EF02DAA24A394B12C14
S1130FE0B3C16CE02616310489F58091E10190913A
S1130FF0E201029751F483E090E09093E201809340
S1131000E10180E38093D601A8C18091E901909128
S1131010EA01029751F483E090E09093EA0180930F
S1131020E90180E38093DA0198C18091F101909104
S1131030F201029709F091C183E090E09093F201EC
S11310408093F10180E38093DE0187C10C301105A8
S113105089F58091E5019091E601029751F483E0CE
S113106090E09093E6018093E50180E38093D801BA
S113107074C18091E9019091EA01029751F483E0EF
S113108090E09093EA018093E90180E38093DA0190
S113109064C18091ED019091EE01029709F05DC168
S11310A083E090E09093EE018093ED0180E38093E0
S11310B0DC0153C10B811C810C30110551F5809169
S11310C0E1019091E201029781F08091E301909116
S11310D0E401029769F08091E5019091E60102979D
S11310E009F03BC182E090E005C080E090E002C0DE
S11310F081E090E0FC01EE0FFF1FEF51FE4F23E073
S113110030E031832083FC01EA52FE4F20E3208348
S113111024C11CE0A116B10451F58091E70190911E
S1131120E801029781F08091E9019091EA01029728
S113113069F08091EB019091EC01029709F00DC1E7
S113114082E090E005C080E090E002C081E090E0A1
S1131150FC01EE0FFF1FE951FE4F23E030E0318325
S11311602083FC01EA52FE4F20E32383F6C02CE0E7
S11311706216710451F58091ED019091EE01029790
S113118081F08091EF019091F001029769F08091D4
S1131190F1019091F201029709F0DFC082E090E042
S11311A005C080E090E002C081E090E0FC01EE0F19
S11311B0FF1FE351FE4F23E030E031832083FC0125
S11311C0EA52FE4F20E32683C8C06CE04616510461
S11311D091F58091E1019091E201029781F0809173
S11311E0E7019091E801029769F08091ED019091F7
S11311F0EE01029709F0B1C082E090E005C080E002
S113120090E002C081E090E026E0289FF001299F51
S1131210F00D1124EF51FE4F23E030E031832083A1
S1131220FC01EE0FFF1F8E0F9F1FFC01EA52FE4FC1
S113123080E3808392C08CE0C816D10491F580913C
S1131240E3019091E401029781F08091E90190918A
S1131250EA01029769F08091EF019091F001029701
S113126009F07BC082E090E005C080E090E002C01D
S113127081E090E026E0289FF001299FF00D1124E1
S1131280EF51FE4F23E030E033832283FC01EE0F65
S1131290FF1F8E0F9F1FFC01EA52FE4F80E38183E4
S11312A05CC09CE08916910409F057C08091E50167
S11312B09091E601029781F08091EB019091EC010D
S11312C0029769F08091F1019091F201029709F07F
S11312D044C082E090E005C080E090E002C081E07C
S11312E090E026E0289FF001299FF00D1124EF5192
S11312F0FE4F23E030E035832483FC01EE0FFF1F13
S11313008E0F9F1FFC01EA52FE4F80E3828325C0AB
S1131310A081B181129749F42115310531F4F1828C
S1131320E082D2019C922A2D3B2D01963296BFEF8A
S11313304B1A5B0A8330910559F74A5F5F4F6D5F23
S11313407F4F4C155D0529F02B01FA0180E090E0F8
S1131350DFCF232B11F40E94A50341EE51E0A3EF4C
S1131360B1E060E070E011C021913191223031058B
S113137029F46115710511F461E070E00197A1F79A
S11313804A5F5F4FA417B50721F0FA0183E090E0AC
S1131390EBCF672B19F40E94A5030BC084ED0E94C8
S11313A05C0086E690E00E94A4008EEA91E00E9430
S11313B0A4000F900F900F900F90DF91CF911F9189
S11313C00F91FF90EF90DF90CF90BF90AF909F90E0
S11313D08F907F906F905F904F903F902F900895E3
S11313E08FEF8ABB87E087BB8FE081BB80EF82BB36
S11313F00E946D000E94FD02C0EFC2BB80B321E2D7
S11314002A95F1F70000803FC1F30E9408010E9471
S1131410AE010E9457020E9449008091D40190912C
S1131420D501019751F71092D5011092D4010E9471
S1131430B3008FE39DE023E0815090402040E1F72A
S113144000C000000E94ED030E94B30087EA91E609
S11314500197F1F700C0000084ED0E945C0086E66D
S113146090E00E94A40084ED0E945C0082EC91E074
S10D14700E94A400C2CFF894FFCF3D
S113147A3080C0940A002E2E2E2E2E2E2E2E2E2E84
S113148A2E2E2E2E2E2E2E2E2E0041444445442E30
S113149A2E2E2E2E2E2E2E2E2E2E2E2E2E00414C5B
S11314AA52454144592054414B454E00202053454E
S11314BA4C454354204C4556454C20202000202AB4
S11314CA45415359202020202348415244202000DA
S11314DA202A4541535920202020004841524400E3
S11314EA4F4848212E2E2E2E2E2E2E2E2E2E2E2EC6
S11314FA2E2E2E004D4154434820445241572E2E3D
S113150A2E2E2E2E2E2E2E2E2E2E2E006E65772069
S113151A4D6174636820696E2035732E2E2E2E2E2B
S113152A00202020202020202020202020202020CD
S113153A20202020202020202000596F7520776F3A
S113154A6E2E2E2E2E2E2E2E2E2E2E2E2E00436F45
S113155A6E67726174756C6174696F6E2E2E2E2EAD
S113156A2E2E2E2E2E004D616368696E6527732018
S113157A7475726E2E2E2E2E2E0020202020596F66
S113158A75206C6F73742E2E2E2E2E2E2E2E2E2E2A
S113159A2E0020202020426164204C75636B2E2E7D
S11315AA2E2E2E2E2E2E2E2E2E00594F55522054CC
S11315BA55524E2E2E2E2E2E2E2E2E2E2E00446FA9
S11315CA6E652E2E2E2E2E2E2E2E2E2E2E2E2E2EB6
S11315DA2E00596F7572205475726E2E2E2E2E2E71
S10515EA0000FB
S9030000FC
